{
  "contractName": "LandRecord",
  "abi": [
    {
      "inputs": [
        {
          "internalType": "address",
          "name": "_govt",
          "type": "address"
        }
      ],
      "stateMutability": "nonpayable",
      "type": "constructor"
    },
    {
      "anonymous": false,
      "inputs": [
        {
          "indexed": false,
          "internalType": "string",
          "name": "plotId",
          "type": "string"
        },
        {
          "indexed": false,
          "internalType": "address",
          "name": "sender",
          "type": "address"
        },
        {
          "indexed": false,
          "internalType": "bool",
          "name": "decision",
          "type": "bool"
        },
        {
          "indexed": false,
          "internalType": "uint256",
          "name": "times",
          "type": "uint256"
        }
      ],
      "name": "eventConsensus",
      "type": "event"
    },
    {
      "anonymous": false,
      "inputs": [
        {
          "indexed": false,
          "internalType": "string",
          "name": "plotId",
          "type": "string"
        },
        {
          "indexed": false,
          "internalType": "string",
          "name": "plotAddr",
          "type": "string"
        },
        {
          "indexed": false,
          "internalType": "uint256",
          "name": "price",
          "type": "uint256"
        },
        {
          "indexed": false,
          "internalType": "uint256[]",
          "name": "owner",
          "type": "uint256[]"
        },
        {
          "indexed": false,
          "internalType": "uint256",
          "name": "times",
          "type": "uint256"
        }
      ],
      "name": "plotAdded",
      "type": "event"
    },
    {
      "anonymous": false,
      "inputs": [
        {
          "indexed": false,
          "internalType": "string",
          "name": "plotId",
          "type": "string"
        },
        {
          "indexed": false,
          "internalType": "uint256",
          "name": "divisions",
          "type": "uint256"
        },
        {
          "indexed": false,
          "internalType": "uint256[]",
          "name": "owner",
          "type": "uint256[]"
        },
        {
          "indexed": false,
          "internalType": "uint256",
          "name": "times",
          "type": "uint256"
        }
      ],
      "name": "plotDivided",
      "type": "event"
    },
    {
      "anonymous": false,
      "inputs": [
        {
          "indexed": false,
          "internalType": "string",
          "name": "plotId",
          "type": "string"
        },
        {
          "indexed": false,
          "internalType": "uint256",
          "name": "newowner",
          "type": "uint256"
        },
        {
          "indexed": false,
          "internalType": "uint256",
          "name": "price",
          "type": "uint256"
        },
        {
          "indexed": false,
          "internalType": "uint256",
          "name": "times",
          "type": "uint256"
        }
      ],
      "name": "plotForBuy",
      "type": "event"
    },
    {
      "anonymous": false,
      "inputs": [
        {
          "indexed": false,
          "internalType": "string",
          "name": "plotId",
          "type": "string"
        },
        {
          "indexed": false,
          "internalType": "bool",
          "name": "isSelling",
          "type": "bool"
        },
        {
          "indexed": false,
          "internalType": "uint256[]",
          "name": "owner",
          "type": "uint256[]"
        },
        {
          "indexed": false,
          "internalType": "uint256",
          "name": "sellingPrice",
          "type": "uint256"
        },
        {
          "indexed": false,
          "internalType": "uint256",
          "name": "times",
          "type": "uint256"
        }
      ],
      "name": "plotSale",
      "type": "event"
    },
    {
      "anonymous": false,
      "inputs": [
        {
          "indexed": false,
          "internalType": "string",
          "name": "plotId",
          "type": "string"
        },
        {
          "indexed": false,
          "internalType": "uint256[]",
          "name": "oldowner",
          "type": "uint256[]"
        },
        {
          "indexed": false,
          "internalType": "uint256",
          "name": "newowner",
          "type": "uint256"
        },
        {
          "indexed": false,
          "internalType": "uint256",
          "name": "sellPrice",
          "type": "uint256"
        },
        {
          "indexed": false,
          "internalType": "uint256",
          "name": "times",
          "type": "uint256"
        }
      ],
      "name": "plotTransferred",
      "type": "event"
    },
    {
      "inputs": [
        {
          "internalType": "uint256",
          "name": "",
          "type": "uint256"
        }
      ],
      "name": "AdminIds",
      "outputs": [
        {
          "internalType": "address",
          "name": "",
          "type": "address"
        }
      ],
      "stateMutability": "view",
      "type": "function"
    },
    {
      "inputs": [
        {
          "internalType": "uint256",
          "name": "",
          "type": "uint256"
        }
      ],
      "name": "Adminaadhars",
      "outputs": [
        {
          "internalType": "uint256",
          "name": "adminId",
          "type": "uint256"
        },
        {
          "internalType": "uint256",
          "name": "adminaadharno",
          "type": "uint256"
        },
        {
          "internalType": "address",
          "name": "adminaddr",
          "type": "address"
        },
        {
          "internalType": "string",
          "name": "role",
          "type": "string"
        }
      ],
      "stateMutability": "view",
      "type": "function"
    },
    {
      "inputs": [
        {
          "internalType": "address",
          "name": "",
          "type": "address"
        }
      ],
      "name": "Admins",
      "outputs": [
        {
          "internalType": "uint256",
          "name": "adminId",
          "type": "uint256"
        },
        {
          "internalType": "uint256",
          "name": "adminaadharno",
          "type": "uint256"
        },
        {
          "internalType": "address",
          "name": "adminaddr",
          "type": "address"
        },
        {
          "internalType": "string",
          "name": "role",
          "type": "string"
        }
      ],
      "stateMutability": "view",
      "type": "function"
    },
    {
      "inputs": [
        {
          "internalType": "string",
          "name": "",
          "type": "string"
        }
      ],
      "name": "Plots",
      "outputs": [
        {
          "internalType": "string",
          "name": "plotId",
          "type": "string"
        },
        {
          "internalType": "bool",
          "name": "disable",
          "type": "bool"
        },
        {
          "internalType": "string",
          "name": "plotaddr",
          "type": "string"
        },
        {
          "internalType": "uint256",
          "name": "plotprice",
          "type": "uint256"
        },
        {
          "internalType": "uint256",
          "name": "taxpercent",
          "type": "uint256"
        },
        {
          "internalType": "string",
          "name": "typedesc",
          "type": "string"
        },
        {
          "internalType": "bool",
          "name": "isSelling",
          "type": "bool"
        },
        {
          "internalType": "uint256",
          "name": "sellingPrice",
          "type": "uint256"
        },
        {
          "internalType": "uint256",
          "name": "newowneraadhar",
          "type": "uint256"
        },
        {
          "internalType": "string",
          "name": "neighbours",
          "type": "string"
        },
        {
          "internalType": "string",
          "name": "imageurl",
          "type": "string"
        },
        {
          "internalType": "bool",
          "name": "inprocess",
          "type": "bool"
        }
      ],
      "stateMutability": "view",
      "type": "function"
    },
    {
      "inputs": [
        {
          "internalType": "uint256",
          "name": "_adminaadharno",
          "type": "uint256"
        },
        {
          "internalType": "string",
          "name": "_role",
          "type": "string"
        }
      ],
      "name": "addAdmin",
      "outputs": [
        {
          "internalType": "uint256",
          "name": "",
          "type": "uint256"
        }
      ],
      "stateMutability": "nonpayable",
      "type": "function"
    },
    {
      "inputs": [
        {
          "internalType": "uint256",
          "name": "_perAadharno",
          "type": "uint256"
        },
        {
          "internalType": "uint256[]",
          "name": "_inheritChildren",
          "type": "uint256[]"
        }
      ],
      "name": "addPerson",
      "outputs": [
        {
          "internalType": "uint256",
          "name": "",
          "type": "uint256"
        }
      ],
      "stateMutability": "nonpayable",
      "type": "function"
    },
    {
      "inputs": [
        {
          "internalType": "string",
          "name": "_plotaddr",
          "type": "string"
        },
        {
          "internalType": "uint256",
          "name": "_plotprice",
          "type": "uint256"
        },
        {
          "internalType": "uint256",
          "name": "_taxpercent",
          "type": "uint256"
        },
        {
          "internalType": "string",
          "name": "_typedesc",
          "type": "string"
        },
        {
          "internalType": "uint256[]",
          "name": "_owneraadhar",
          "type": "uint256[]"
        },
        {
          "internalType": "string",
          "name": "_neighbours",
          "type": "string"
        },
        {
          "internalType": "string",
          "name": "_imageurl",
          "type": "string"
        }
      ],
      "name": "addPlot",
      "outputs": [
        {
          "internalType": "string",
          "name": "",
          "type": "string"
        }
      ],
      "stateMutability": "nonpayable",
      "type": "function"
    },
    {
      "inputs": [
        {
          "internalType": "string",
          "name": "_plotId",
          "type": "string"
        },
        {
          "internalType": "uint256",
          "name": "_taxpercent",
          "type": "uint256"
        }
      ],
      "name": "addTax",
      "outputs": [],
      "stateMutability": "nonpayable",
      "type": "function"
    },
    {
      "inputs": [],
      "name": "adminCount",
      "outputs": [
        {
          "internalType": "uint256",
          "name": "",
          "type": "uint256"
        }
      ],
      "stateMutability": "view",
      "type": "function"
    },
    {
      "inputs": [
        {
          "internalType": "string",
          "name": "_plotId",
          "type": "string"
        },
        {
          "internalType": "uint256",
          "name": "_aadhar",
          "type": "uint256"
        }
      ],
      "name": "buyLand",
      "outputs": [],
      "stateMutability": "nonpayable",
      "type": "function"
    },
    {
      "inputs": [
        {
          "internalType": "string",
          "name": "_plotId",
          "type": "string"
        },
        {
          "internalType": "bool",
          "name": "_dec",
          "type": "bool"
        }
      ],
      "name": "consensus",
      "outputs": [],
      "stateMutability": "nonpayable",
      "type": "function"
    },
    {
      "inputs": [
        {
          "internalType": "string",
          "name": "_plotId",
          "type": "string"
        },
        {
          "internalType": "uint256",
          "name": "_aadhar",
          "type": "uint256"
        }
      ],
      "name": "desale",
      "outputs": [],
      "stateMutability": "nonpayable",
      "type": "function"
    },
    {
      "inputs": [
        {
          "internalType": "string",
          "name": "_plotId",
          "type": "string"
        },
        {
          "internalType": "uint256",
          "name": "_aadhar",
          "type": "uint256"
        }
      ],
      "name": "expirePerson",
      "outputs": [],
      "stateMutability": "nonpayable",
      "type": "function"
    },
    {
      "inputs": [
        {
          "internalType": "string",
          "name": "_plotId",
          "type": "string"
        }
      ],
      "name": "getconsensus",
      "outputs": [
        {
          "internalType": "bool[]",
          "name": "",
          "type": "bool[]"
        }
      ],
      "stateMutability": "view",
      "type": "function"
    },
    {
      "inputs": [
        {
          "internalType": "string",
          "name": "_plotId",
          "type": "string"
        }
      ],
      "name": "getowner",
      "outputs": [
        {
          "internalType": "uint256[]",
          "name": "",
          "type": "uint256[]"
        }
      ],
      "stateMutability": "view",
      "type": "function"
    },
    {
      "inputs": [],
      "name": "govtGSTAddr",
      "outputs": [
        {
          "internalType": "address",
          "name": "",
          "type": "address"
        }
      ],
      "stateMutability": "view",
      "type": "function"
    },
    {
      "inputs": [],
      "name": "personCount",
      "outputs": [
        {
          "internalType": "uint256",
          "name": "",
          "type": "uint256"
        }
      ],
      "stateMutability": "view",
      "type": "function"
    },
    {
      "inputs": [
        {
          "internalType": "uint256",
          "name": "",
          "type": "uint256"
        }
      ],
      "name": "personIds",
      "outputs": [
        {
          "internalType": "uint256",
          "name": "personId",
          "type": "uint256"
        },
        {
          "internalType": "uint256",
          "name": "perAadharno",
          "type": "uint256"
        }
      ],
      "stateMutability": "view",
      "type": "function"
    },
    {
      "inputs": [
        {
          "internalType": "uint256",
          "name": "",
          "type": "uint256"
        }
      ],
      "name": "personaadhars",
      "outputs": [
        {
          "internalType": "uint256",
          "name": "personId",
          "type": "uint256"
        },
        {
          "internalType": "uint256",
          "name": "perAadharno",
          "type": "uint256"
        }
      ],
      "stateMutability": "view",
      "type": "function"
    },
    {
      "inputs": [],
      "name": "plotCount",
      "outputs": [
        {
          "internalType": "uint256",
          "name": "",
          "type": "uint256"
        }
      ],
      "stateMutability": "view",
      "type": "function"
    },
    {
      "inputs": [
        {
          "internalType": "string",
          "name": "_plotId",
          "type": "string"
        },
        {
          "internalType": "uint256",
          "name": "_aadhar",
          "type": "uint256"
        },
        {
          "internalType": "uint256",
          "name": "_divisionSize",
          "type": "uint256"
        },
        {
          "internalType": "string[]",
          "name": "_plotAddr",
          "type": "string[]"
        },
        {
          "internalType": "uint256[]",
          "name": "_plotprice",
          "type": "uint256[]"
        },
        {
          "internalType": "string[]",
          "name": "_typedesc",
          "type": "string[]"
        },
        {
          "internalType": "string[]",
          "name": "_neighbours",
          "type": "string[]"
        },
        {
          "internalType": "string[]",
          "name": "_imageurl",
          "type": "string[]"
        }
      ],
      "name": "plotDivison",
      "outputs": [],
      "stateMutability": "nonpayable",
      "type": "function"
    },
    {
      "inputs": [
        {
          "internalType": "string",
          "name": "_plotId",
          "type": "string"
        },
        {
          "internalType": "uint256",
          "name": "_price",
          "type": "uint256"
        },
        {
          "internalType": "uint256",
          "name": "_aadhar",
          "type": "uint256"
        }
      ],
      "name": "putForSale",
      "outputs": [],
      "stateMutability": "nonpayable",
      "type": "function"
    }
  ],
  "bytecode": "0x608060405260008055600060015560006002553480156200001f57600080fd5b5060405162004bc138038062004bc18339818101604052810190620000459190620000a4565b80600360006101000a81548173ffffffffffffffffffffffffffffffffffffffff021916908373ffffffffffffffffffffffffffffffffffffffff160217905550506200011e565b6000815190506200009e8162000104565b92915050565b600060208284031215620000b757600080fd5b6000620000c7848285016200008d565b91505092915050565b6000620000dd82620000e4565b9050919050565b600073ffffffffffffffffffffffffffffffffffffffff82169050919050565b6200010f81620000d0565b81146200011b57600080fd5b50565b614a93806200012e6000396000f3fe6080604052600436106101405760003560e01c80633e609373116100b65780639a99f0021161006f5780639a99f002146104f0578063b3a8f9ea1461051b578063c2a53fc31461055b578063cde2b5a514610584578063ced39558146105ad578063f586e1b3146105c957610140565b80633e6093731461039f5780634845ae7a146103e55780634931790b14610422578063501009f71461045f5780636bd7eaa31461049c57806378495bf8146104c557610140565b80632b7832b3116101085780632b7832b3146102695780632e0031961461029457806331a72761146102d157806332c55e111461030e57806333635409146103395780633cd76be21461037657610140565b806307de9735146101455780630ec6d58a1461018457806312514bba146101c45780631b3eee4a146101ed57806324b50b241461022a575b600080fd5b34801561015157600080fd5b5061016c6004803603810190610167919061415e565b6105f2565b60405161017b939291906147d9565b60405180910390f35b34801561019057600080fd5b506101ab60048036038101906101a6919061415e565b61063c565b6040516101bb9493929190614810565b60405180910390f35b3480156101d057600080fd5b506101eb60048036038101906101e6919061429d565b610724565b005b3480156101f957600080fd5b50610214600480360381019061020f919061429d565b610ec5565b6040516102219190614569565b60405180910390f35b34801561023657600080fd5b50610251600480360381019061024c919061429d565b610ef8565b604051610260939291906147d9565b60405180910390f35b34801561027557600080fd5b5061027e610f42565b60405161028b91906145c8565b60405180910390f35b3480156102a057600080fd5b506102bb60048036038101906102b69190614187565b610f48565b6040516102c891906145c8565b60405180910390f35b3480156102dd57600080fd5b506102f860048036038101906102f3919061429d565b611173565b60405161030591906145a6565b60405180910390f35b34801561031a57600080fd5b50610323611206565b60405161033091906145c8565b60405180910390f35b34801561034557600080fd5b50610360600480360381019061035b919061435a565b61120c565b60405161036d91906145c8565b60405180910390f35b34801561038257600080fd5b5061039d600480360381019061039891906143ae565b6116af565b005b3480156103ab57600080fd5b506103c660048036038101906103c1919061429d565b611cba565b6040516103dc9a99989796959493929190614721565b60405180910390f35b3480156103f157600080fd5b5061040c6004803603810190610407919061429d565b611f9b565b6040516104199190614584565b60405180910390f35b34801561042e57600080fd5b50610449600480360381019061044491906142c6565b61203f565b60405161045691906145c8565b60405180910390f35b34801561046b57600080fd5b506104866004803603810190610481919061429d565b6125f9565b6040516104939190614569565b60405180910390f35b3480156104a857600080fd5b506104c360048036038101906104be919061429d565b61262c565b005b3480156104d157600080fd5b506104da612877565b6040516104e791906145c8565b60405180910390f35b3480156104fc57600080fd5b5061050561287d565b6040516105129190614569565b60405180910390f35b34801561052757600080fd5b50610542600480360381019061053d919061429d565b6128a3565b6040516105529493929190614810565b60405180910390f35b34801561056757600080fd5b50610582600480360381019061057d919061431e565b61298b565b005b34801561059057600080fd5b506105ab60048036038101906105a6919061429d565b612a94565b005b6105c760048036038101906105c2919061429d565b61309f565b005b3480156105d557600080fd5b506105f060048036038101906105eb91906143ae565b6136a8565b005b60046020528060005260406000206000915090508060000154908060010154908060020160009054906101000a900473ffffffffffffffffffffffffffffffffffffffff16905083565b60086020528060005260406000206000915090508060000154908060010154908060020160009054906101000a900473ffffffffffffffffffffffffffffffffffffffff1690806003018054600181600116156101000203166002900480601f01602080910402602001604051908101604052809291908181526020018280546001816001161561010002031660029004801561071a5780601f106106ef5761010080835404028352916020019161071a565b820191906000526020600020905b8154815290600101906020018083116106fd57829003601f168201915b5050505050905084565b61072c613c64565b600760008381526020019081526020016000206040518061018001604052908160008201548152602001600182018054600181600116156101000203166002900480601f0160208091040260200160405190810160405280929190818152602001828054600181600116156101000203166002900480156107ee5780601f106107c3576101008083540402835291602001916107ee565b820191906000526020600020905b8154815290600101906020018083116107d157829003601f168201915b505050505081526020016002820154815260200160038201548152602001600482018054600181600116156101000203166002900480601f0160208091040260200160405190810160405280929190818152602001828054600181600116156101000203166002900480156108a45780601f10610879576101008083540402835291602001916108a4565b820191906000526020600020905b81548152906001019060200180831161088757829003601f168201915b505050505081526020016005820180548060200260200160405190810160405280929190818152602001828054801561093257602002820191906000526020600020905b8160009054906101000a900473ffffffffffffffffffffffffffffffffffffffff1673ffffffffffffffffffffffffffffffffffffffff16815260200190600101908083116108e8575b505050505081526020016006820160009054906101000a900460ff16151515158152602001600782015481526020016008820160009054906101000a900473ffffffffffffffffffffffffffffffffffffffff1673ffffffffffffffffffffffffffffffffffffffff1673ffffffffffffffffffffffffffffffffffffffff168152602001600982018054600181600116156101000203166002900480601f016020809104026020016040519081016040528092919081815260200182805460018160011615610100020316600290048015610a4f5780601f10610a2457610100808354040283529160200191610a4f565b820191906000526020600020905b815481529060010190602001808311610a3257829003601f168201915b50505050508152602001600a8201805480602002602001604051908101604052809291908181526020018280548015610acc57602002820191906000526020600020906000905b82829054906101000a900460ff16151581526020019060010190602082600001049283019260010382029150808411610a965790505b50505050508152602001600b82018054600181600116156101000203166002900480601f016020809104026020016040519081016040528092919081815260200182805460018160011615610100020316600290048015610b6e5780601f10610b4357610100808354040283529160200191610b6e565b820191906000526020600020905b815481529060010190602001808311610b5157829003601f168201915b505050505081525050905060008160a0015151905060008260e0015190506000828460e0015181610b9b57fe5b0490506000846101000151905060608560a00151905060005b85811015610c27578660a001518181518110610bcc57fe5b602002602001015173ffffffffffffffffffffffffffffffffffffffff166108fc859081150290604051600060405180830381858888f19350505050158015610c19573d6000803e3d6000fd5b508080600101915050610bb4565b508560e0015186604001818152505060008660c001901515908115158152505060008660e0018181525050600086610100019073ffffffffffffffffffffffffffffffffffffffff16908173ffffffffffffffffffffffffffffffffffffffff16815250508560076000898152602001908152602001600020600082015181600001556020820151816001019080519060200190610cc6929190613cdd565b5060408201518160020155606082015181600301556080820151816004019080519060200190610cf7929190613cdd565b5060a0820151816005019080519060200190610d14929190613d5d565b5060c08201518160060160006101000a81548160ff02191690831515021790555060e082015181600701556101008201518160080160006101000a81548173ffffffffffffffffffffffffffffffffffffffff021916908373ffffffffffffffffffffffffffffffffffffffff160217905550610120820151816009019080519060200190610da4929190613cdd565b5061014082015181600a019080519060200190610dc2929190613de7565b5061016082015181600b019080519060200190610de0929190613cdd565b50905050600760008881526020019081526020016000206005016000610e069190613e8d565b60076000888152602001908152602001600020600501829080600181540180825580915050600190039060005260206000200160009091909190916101000a81548173ffffffffffffffffffffffffffffffffffffffff021916908373ffffffffffffffffffffffffffffffffffffffff1602179055507f2d173a0aef8a47ca9eb8cea6a6d1192e8be4c56c5d6cf7a75b6bd8fe4e1dfbe08782848742604051610eb49594939291906145e3565b60405180910390a150505050505050565b60096020528060005260406000206000915054906101000a900473ffffffffffffffffffffffffffffffffffffffff1681565b60066020528060005260406000206000915090508060000154908060010154908060020160009054906101000a900473ffffffffffffffffffffffffffffffffffffffff16905083565b60025481565b6000600160008154809291906001019190505550610f64613c64565b60015481600001818152505088816020018190525087816040018181525050848160a0018190525086816060018181525050858160800181905250838161012001819052508281610160018190525080600760006001548152602001908152602001600020600082015181600001556020820151816001019080519060200190610fef929190613cdd565b5060408201518160020155606082015181600301556080820151816004019080519060200190611020929190613cdd565b5060a082015181600501908051906020019061103d929190613d5d565b5060c08201518160060160006101000a81548160ff02191690831515021790555060e082015181600701556101008201518160080160006101000a81548173ffffffffffffffffffffffffffffffffffffffff021916908373ffffffffffffffffffffffffffffffffffffffff1602179055506101208201518160090190805190602001906110cd929190613cdd565b5061014082015181600a0190805190602001906110eb929190613de7565b5061016082015181600b019080519060200190611109929190613cdd565b509050507fa4cd259d5f51a3a09de9e1ca91aebdc97e844d8031b6c951c591114333be4f3e6001548a8a8860008151811061114057fe5b60200260200101514260405161115a9594939291906146c7565b60405180910390a1600154915050979650505050505050565b606060076000838152602001908152602001600020600a018054806020026020016040519081016040528092919081815260200182805480156111fa57602002820191906000526020600020906000905b82829054906101000a900460ff161515815260200190600101906020826000010492830192600103820291508084116111c45790505b50505050509050919050565b60015481565b600080600860003373ffffffffffffffffffffffffffffffffffffffff1673ffffffffffffffffffffffffffffffffffffffff168152602001908152602001600020600001549050600081141561147857600260008154809291906001019190505550611277613eae565b6002548160000181815250508481602001818152505033816040019073ffffffffffffffffffffffffffffffffffffffff16908173ffffffffffffffffffffffffffffffffffffffff168152505083816060018190525080600860003373ffffffffffffffffffffffffffffffffffffffff1673ffffffffffffffffffffffffffffffffffffffff168152602001908152602001600020600082015181600001556020820151816001015560408201518160020160006101000a81548173ffffffffffffffffffffffffffffffffffffffff021916908373ffffffffffffffffffffffffffffffffffffffff1602179055506060820151816003019080519060200190611385929190613cdd565b509050503360096000600254815260200190815260200160002060006101000a81548173ffffffffffffffffffffffffffffffffffffffff021916908373ffffffffffffffffffffffffffffffffffffffff16021790555080600a6000878152602001908152602001600020600082015181600001556020820151816001015560408201518160020160006101000a81548173ffffffffffffffffffffffffffffffffffffffff021916908373ffffffffffffffffffffffffffffffffffffffff1602179055506060820151816003019080519060200190611468929190613cdd565b50905050600254925050506116a9565b611480613eae565b600860003373ffffffffffffffffffffffffffffffffffffffff1673ffffffffffffffffffffffffffffffffffffffff16815260200190815260200160002060405180608001604052908160008201548152602001600182015481526020016002820160009054906101000a900473ffffffffffffffffffffffffffffffffffffffff1673ffffffffffffffffffffffffffffffffffffffff1673ffffffffffffffffffffffffffffffffffffffff168152602001600382018054600181600116156101000203166002900480601f0160208091040260200160405190810160405280929190818152602001828054600181600116156101000203166002900480156115cd5780601f106115a2576101008083540402835291602001916115cd565b820191906000526020600020905b8154815290600101906020018083116115b057829003601f168201915b50505050508152505090508481602001818152505083816060018190525080600860003373ffffffffffffffffffffffffffffffffffffffff1673ffffffffffffffffffffffffffffffffffffffff168152602001908152602001600020600082015181600001556020820151816001015560408201518160020160006101000a81548173ffffffffffffffffffffffffffffffffffffffff021916908373ffffffffffffffffffffffffffffffffffffffff16021790555060608201518160030190805190602001906116a2929190613cdd565b5090505050505b92915050565b6116b7613c64565b600760008481526020019081526020016000206040518061018001604052908160008201548152602001600182018054600181600116156101000203166002900480601f0160208091040260200160405190810160405280929190818152602001828054600181600116156101000203166002900480156117795780601f1061174e57610100808354040283529160200191611779565b820191906000526020600020905b81548152906001019060200180831161175c57829003601f168201915b505050505081526020016002820154815260200160038201548152602001600482018054600181600116156101000203166002900480601f01602080910402602001604051908101604052809291908181526020018280546001816001161561010002031660029004801561182f5780601f106118045761010080835404028352916020019161182f565b820191906000526020600020905b81548152906001019060200180831161181257829003601f168201915b50505050508152602001600582018054806020026020016040519081016040528092919081815260200182805480156118bd57602002820191906000526020600020905b8160009054906101000a900473ffffffffffffffffffffffffffffffffffffffff1673ffffffffffffffffffffffffffffffffffffffff1681526020019060010190808311611873575b505050505081526020016006820160009054906101000a900460ff16151515158152602001600782015481526020016008820160009054906101000a900473ffffffffffffffffffffffffffffffffffffffff1673ffffffffffffffffffffffffffffffffffffffff1673ffffffffffffffffffffffffffffffffffffffff168152602001600982018054600181600116156101000203166002900480601f0160208091040260200160405190810160405280929190818152602001828054600181600116156101000203166002900480156119da5780601f106119af576101008083540402835291602001916119da565b820191906000526020600020905b8154815290600101906020018083116119bd57829003601f168201915b50505050508152602001600a8201805480602002602001604051908101604052809291908181526020018280548015611a5757602002820191906000526020600020906000905b82829054906101000a900460ff16151581526020019060010190602082600001049283019260010382029150808411611a215790505b50505050508152602001600b82018054600181600116156101000203166002900480601f016020809104026020016040519081016040528092919081815260200182805460018160011615610100020316600290048015611af95780601f10611ace57610100808354040283529160200191611af9565b820191906000526020600020905b815481529060010190602001808311611adc57829003601f168201915b505050505081525050905060018160c0019015159081151581525050818160e00181815250508060076000858152602001908152602001600020600082015181600001556020820151816001019080519060200190611b59929190613cdd565b5060408201518160020155606082015181600301556080820151816004019080519060200190611b8a929190613cdd565b5060a0820151816005019080519060200190611ba7929190613d5d565b5060c08201518160060160006101000a81548160ff02191690831515021790555060e082015181600701556101008201518160080160006101000a81548173ffffffffffffffffffffffffffffffffffffffff021916908373ffffffffffffffffffffffffffffffffffffffff160217905550610120820151816009019080519060200190611c37929190613cdd565b5061014082015181600a019080519060200190611c55929190613de7565b5061016082015181600b019080519060200190611c73929190613cdd565b509050507fc40c3a972238cf6cce66d6dbd098e4d09d77de7dc57eb20d30db58f0344b87be8360018442604051611cad9493929190614682565b60405180910390a1505050565b6007602052806000526040600020600091509050806000015490806001018054600181600116156101000203166002900480601f016020809104026020016040519081016040528092919081815260200182805460018160011615610100020316600290048015611d6c5780601f10611d4157610100808354040283529160200191611d6c565b820191906000526020600020905b815481529060010190602001808311611d4f57829003601f168201915b505050505090806002015490806003015490806004018054600181600116156101000203166002900480601f016020809104026020016040519081016040528092919081815260200182805460018160011615610100020316600290048015611e165780601f10611deb57610100808354040283529160200191611e16565b820191906000526020600020905b815481529060010190602001808311611df957829003601f168201915b5050505050908060060160009054906101000a900460ff16908060070154908060080160009054906101000a900473ffffffffffffffffffffffffffffffffffffffff1690806009018054600181600116156101000203166002900480601f016020809104026020016040519081016040528092919081815260200182805460018160011615610100020316600290048015611ef35780601f10611ec857610100808354040283529160200191611ef3565b820191906000526020600020905b815481529060010190602001808311611ed657829003601f168201915b50505050509080600b018054600181600116156101000203166002900480601f016020809104026020016040519081016040528092919081815260200182805460018160011615610100020316600290048015611f915780601f10611f6657610100808354040283529160200191611f91565b820191906000526020600020905b815481529060010190602001808311611f7457829003601f168201915b505050505090508a565b60606007600083815260200190815260200160002060050180548060200260200160405190810160405280929190818152602001828054801561203357602002820191906000526020600020905b8160009054906101000a900473ffffffffffffffffffffffffffffffffffffffff1673ffffffffffffffffffffffffffffffffffffffff1681526020019060010190808311611fe9575b50505050509050919050565b600080600460003373ffffffffffffffffffffffffffffffffffffffff1673ffffffffffffffffffffffffffffffffffffffff168152602001908152602001600020600001549050600081141561232457612098613eec565b60008081548092919060010191905055506000548160000181815250508581602001818152505033816040019073ffffffffffffffffffffffffffffffffffffffff16908173ffffffffffffffffffffffffffffffffffffffff1681525050848480806020026020016040519081016040528093929190818152602001838360200280828437600081840152601f19601f82011690508083019250505050505050816080018190525080600460003373ffffffffffffffffffffffffffffffffffffffff1673ffffffffffffffffffffffffffffffffffffffff168152602001908152602001600020600082015181600001556020820151816001015560408201518160020160006101000a81548173ffffffffffffffffffffffffffffffffffffffff021916908373ffffffffffffffffffffffffffffffffffffffff16021790555060608201518160030190805190602001906121f8929190613f31565b506080820151816004019080519060200190612215929190613d5d565b5090505033600560008054815260200190815260200160002060006101000a81548173ffffffffffffffffffffffffffffffffffffffff021916908373ffffffffffffffffffffffffffffffffffffffff1602179055508060066000888152602001908152602001600020600082015181600001556020820151816001015560408201518160020160006101000a81548173ffffffffffffffffffffffffffffffffffffffff021916908373ffffffffffffffffffffffffffffffffffffffff16021790555060608201518160030190805190602001906122f7929190613f31565b506080820151816004019080519060200190612314929190613d5d565b50905050600054925050506125f2565b61232c613eec565b600460003373ffffffffffffffffffffffffffffffffffffffff1673ffffffffffffffffffffffffffffffffffffffff1681526020019081526020016000206040518060a001604052908160008201548152602001600182015481526020016002820160009054906101000a900473ffffffffffffffffffffffffffffffffffffffff1673ffffffffffffffffffffffffffffffffffffffff1673ffffffffffffffffffffffffffffffffffffffff1681526020016003820180548060200260200160405190810160405280929190818152602001828054801561242f57602002820191906000526020600020905b81548152602001906001019080831161241b575b50505050508152602001600482018054806020026020016040519081016040528092919081815260200182805480156124bd57602002820191906000526020600020905b8160009054906101000a900473ffffffffffffffffffffffffffffffffffffffff1673ffffffffffffffffffffffffffffffffffffffff1681526020019060010190808311612473575b5050505050815250509050848480806020026020016040519081016040528093929190818152602001838360200280828437600081840152601f19601f82011690508083019250505050505050816080018190525080600460003373ffffffffffffffffffffffffffffffffffffffff1673ffffffffffffffffffffffffffffffffffffffff168152602001908152602001600020600082015181600001556020820151816001015560408201518160020160006101000a81548173ffffffffffffffffffffffffffffffffffffffff021916908373ffffffffffffffffffffffffffffffffffffffff16021790555060608201518160030190805190602001906125c9929190613f31565b5060808201518160040190805190602001906125e6929190613d5d565b50905050600054925050505b9392505050565b60056020528060005260406000206000915054906101000a900473ffffffffffffffffffffffffffffffffffffffff1681565b600060076000838152602001908152602001600020600501905061264e613eec565b600460008360008154811061265f57fe5b9060005260206000200160009054906101000a900473ffffffffffffffffffffffffffffffffffffffff1673ffffffffffffffffffffffffffffffffffffffff1673ffffffffffffffffffffffffffffffffffffffff1681526020019081526020016000206040518060a001604052908160008201548152602001600182015481526020016002820160009054906101000a900473ffffffffffffffffffffffffffffffffffffffff1673ffffffffffffffffffffffffffffffffffffffff1673ffffffffffffffffffffffffffffffffffffffff1681526020016003820180548060200260200160405190810160405280929190818152602001828054801561278857602002820191906000526020600020905b815481526020019060010190808311612774575b505050505081526020016004820180548060200260200160405190810160405280929190818152602001828054801561281657602002820191906000526020600020905b8160009054906101000a900473ffffffffffffffffffffffffffffffffffffffff1673ffffffffffffffffffffffffffffffffffffffff16815260200190600101908083116127cc575b50505050508152505090506007600084815260200190815260200160002060050160006128439190613e8d565b8060800151600760008581526020019081526020016000206005019080519060200190612871929190613d5d565b50505050565b60005481565b600360009054906101000a900473ffffffffffffffffffffffffffffffffffffffff1681565b600a6020528060005260406000206000915090508060000154908060010154908060020160009054906101000a900473ffffffffffffffffffffffffffffffffffffffff1690806003018054600181600116156101000203166002900480601f0160208091040260200160405190810160405280929190818152602001828054600181600116156101000203166002900480156129815780601f1061295657610100808354040283529160200191612981565b820191906000526020600020905b81548152906001019060200180831161296457829003601f168201915b5050505050905084565b60076000838152602001908152602001600020600a018190806001815401808255809150506001900390600052602060002090602091828204019190069091909190916101000a81548160ff0219169083151502179055506000600760008481526020019081526020016000209050600081600a0180549050905060016002805481612a1357fe5b04018110612a8e57600080600090505b82811015612a755783600a018181548110612a3a57fe5b90600052602060002090602091828204019190069054906101000a900460ff1615612a685781806001019250505b8080600101915050612a23565b506002548160020210612a8c57612a8b85610724565b5b505b50505050565b612a9c613c64565b600760008381526020019081526020016000206040518061018001604052908160008201548152602001600182018054600181600116156101000203166002900480601f016020809104026020016040519081016040528092919081815260200182805460018160011615610100020316600290048015612b5e5780601f10612b3357610100808354040283529160200191612b5e565b820191906000526020600020905b815481529060010190602001808311612b4157829003601f168201915b505050505081526020016002820154815260200160038201548152602001600482018054600181600116156101000203166002900480601f016020809104026020016040519081016040528092919081815260200182805460018160011615610100020316600290048015612c145780601f10612be957610100808354040283529160200191612c14565b820191906000526020600020905b815481529060010190602001808311612bf757829003601f168201915b5050505050815260200160058201805480602002602001604051908101604052809291908181526020018280548015612ca257602002820191906000526020600020905b8160009054906101000a900473ffffffffffffffffffffffffffffffffffffffff1673ffffffffffffffffffffffffffffffffffffffff1681526020019060010190808311612c58575b505050505081526020016006820160009054906101000a900460ff16151515158152602001600782015481526020016008820160009054906101000a900473ffffffffffffffffffffffffffffffffffffffff1673ffffffffffffffffffffffffffffffffffffffff1673ffffffffffffffffffffffffffffffffffffffff168152602001600982018054600181600116156101000203166002900480601f016020809104026020016040519081016040528092919081815260200182805460018160011615610100020316600290048015612dbf5780601f10612d9457610100808354040283529160200191612dbf565b820191906000526020600020905b815481529060010190602001808311612da257829003601f168201915b50505050508152602001600a8201805480602002602001604051908101604052809291908181526020018280548015612e3c57602002820191906000526020600020906000905b82829054906101000a900460ff16151581526020019060010190602082600001049283019260010382029150808411612e065790505b50505050508152602001600b82018054600181600116156101000203166002900480601f016020809104026020016040519081016040528092919081815260200182805460018160011615610100020316600290048015612ede5780601f10612eb357610100808354040283529160200191612ede565b820191906000526020600020905b815481529060010190602001808311612ec157829003601f168201915b505050505081525050905060008160c001901515908115158152505060008160e00181815250508060076000848152602001908152602001600020600082015181600001556020820151816001019080519060200190612f3f929190613cdd565b5060408201518160020155606082015181600301556080820151816004019080519060200190612f70929190613cdd565b5060a0820151816005019080519060200190612f8d929190613d5d565b5060c08201518160060160006101000a81548160ff02191690831515021790555060e082015181600701556101008201518160080160006101000a81548173ffffffffffffffffffffffffffffffffffffffff021916908373ffffffffffffffffffffffffffffffffffffffff16021790555061012082015181600901908051906020019061301d929190613cdd565b5061014082015181600a01908051906020019061303b929190613de7565b5061016082015181600b019080519060200190613059929190613cdd565b509050507fc40c3a972238cf6cce66d6dbd098e4d09d77de7dc57eb20d30db58f0344b87be8260008042604051613093949392919061463d565b60405180910390a15050565b6130a7613c64565b600760008381526020019081526020016000206040518061018001604052908160008201548152602001600182018054600181600116156101000203166002900480601f0160208091040260200160405190810160405280929190818152602001828054600181600116156101000203166002900480156131695780601f1061313e57610100808354040283529160200191613169565b820191906000526020600020905b81548152906001019060200180831161314c57829003601f168201915b505050505081526020016002820154815260200160038201548152602001600482018054600181600116156101000203166002900480601f01602080910402602001604051908101604052809291908181526020018280546001816001161561010002031660029004801561321f5780601f106131f45761010080835404028352916020019161321f565b820191906000526020600020905b81548152906001019060200180831161320257829003601f168201915b50505050508152602001600582018054806020026020016040519081016040528092919081815260200182805480156132ad57602002820191906000526020600020905b8160009054906101000a900473ffffffffffffffffffffffffffffffffffffffff1673ffffffffffffffffffffffffffffffffffffffff1681526020019060010190808311613263575b505050505081526020016006820160009054906101000a900460ff16151515158152602001600782015481526020016008820160009054906101000a900473ffffffffffffffffffffffffffffffffffffffff1673ffffffffffffffffffffffffffffffffffffffff1673ffffffffffffffffffffffffffffffffffffffff168152602001600982018054600181600116156101000203166002900480601f0160208091040260200160405190810160405280929190818152602001828054600181600116156101000203166002900480156133ca5780601f1061339f576101008083540402835291602001916133ca565b820191906000526020600020905b8154815290600101906020018083116133ad57829003601f168201915b50505050508152602001600a820180548060200260200160405190810160405280929190818152602001828054801561344757602002820191906000526020600020906000905b82829054906101000a900460ff161515815260200190600101906020826000010492830192600103820291508084116134115790505b50505050508152602001600b82018054600181600116156101000203166002900480601f0160208091040260200160405190810160405280929190818152602001828054600181600116156101000203166002900480156134e95780601f106134be576101008083540402835291602001916134e9565b820191906000526020600020905b8154815290600101906020018083116134cc57829003601f168201915b50505050508152505090508060c0015161350257600080fd5b348160e00151111561351357600080fd5b3381610100019073ffffffffffffffffffffffffffffffffffffffff16908173ffffffffffffffffffffffffffffffffffffffff16815250508060076000848152602001908152602001600020600082015181600001556020820151816001019080519060200190613586929190613cdd565b50604082015181600201556060820151816003015560808201518160040190805190602001906135b7929190613cdd565b5060a08201518160050190805190602001906135d4929190613d5d565b5060c08201518160060160006101000a81548160ff02191690831515021790555060e082015181600701556101008201518160080160006101000a81548173ffffffffffffffffffffffffffffffffffffffff021916908373ffffffffffffffffffffffffffffffffffffffff160217905550610120820151816009019080519060200190613664929190613cdd565b5061014082015181600a019080519060200190613682929190613de7565b5061016082015181600b0190805190602001906136a0929190613cdd565b509050505050565b6136b0613c64565b600760008481526020019081526020016000206040518061018001604052908160008201548152602001600182018054600181600116156101000203166002900480601f0160208091040260200160405190810160405280929190818152602001828054600181600116156101000203166002900480156137725780601f1061374757610100808354040283529160200191613772565b820191906000526020600020905b81548152906001019060200180831161375557829003601f168201915b505050505081526020016002820154815260200160038201548152602001600482018054600181600116156101000203166002900480601f0160208091040260200160405190810160405280929190818152602001828054600181600116156101000203166002900480156138285780601f106137fd57610100808354040283529160200191613828565b820191906000526020600020905b81548152906001019060200180831161380b57829003601f168201915b50505050508152602001600582018054806020026020016040519081016040528092919081815260200182805480156138b657602002820191906000526020600020905b8160009054906101000a900473ffffffffffffffffffffffffffffffffffffffff1673ffffffffffffffffffffffffffffffffffffffff168152602001906001019080831161386c575b505050505081526020016006820160009054906101000a900460ff16151515158152602001600782015481526020016008820160009054906101000a900473ffffffffffffffffffffffffffffffffffffffff1673ffffffffffffffffffffffffffffffffffffffff1673ffffffffffffffffffffffffffffffffffffffff168152602001600982018054600181600116156101000203166002900480601f0160208091040260200160405190810160405280929190818152602001828054600181600116156101000203166002900480156139d35780601f106139a8576101008083540402835291602001916139d3565b820191906000526020600020905b8154815290600101906020018083116139b657829003601f168201915b50505050508152602001600a8201805480602002602001604051908101604052809291908181526020018280548015613a5057602002820191906000526020600020906000905b82829054906101000a900460ff16151581526020019060010190602082600001049283019260010382029150808411613a1a5790505b50505050508152602001600b82018054600181600116156101000203166002900480601f016020809104026020016040519081016040528092919081815260200182805460018160011615610100020316600290048015613af25780601f10613ac757610100808354040283529160200191613af2565b820191906000526020600020905b815481529060010190602001808311613ad557829003601f168201915b5050505050815250509050818160600181815250508060076000858152602001908152602001600020600082015181600001556020820151816001019080519060200190613b41929190613cdd565b5060408201518160020155606082015181600301556080820151816004019080519060200190613b72929190613cdd565b5060a0820151816005019080519060200190613b8f929190613d5d565b5060c08201518160060160006101000a81548160ff02191690831515021790555060e082015181600701556101008201518160080160006101000a81548173ffffffffffffffffffffffffffffffffffffffff021916908373ffffffffffffffffffffffffffffffffffffffff160217905550610120820151816009019080519060200190613c1f929190613cdd565b5061014082015181600a019080519060200190613c3d929190613de7565b5061016082015181600b019080519060200190613c5b929190613cdd565b50905050505050565b60405180610180016040528060008152602001606081526020016000815260200160008152602001606081526020016060815260200160001515815260200160008152602001600073ffffffffffffffffffffffffffffffffffffffff1681526020016060815260200160608152602001606081525090565b828054600181600116156101000203166002900490600052602060002090601f016020900481019282601f10613d1e57805160ff1916838001178555613d4c565b82800160010185558215613d4c579182015b82811115613d4b578251825591602001919060010190613d30565b5b509050613d599190613f7e565b5090565b828054828255906000526020600020908101928215613dd6579160200282015b82811115613dd55782518260006101000a81548173ffffffffffffffffffffffffffffffffffffffff021916908373ffffffffffffffffffffffffffffffffffffffff16021790555091602001919060010190613d7d565b5b509050613de39190613f9b565b5090565b82805482825590600052602060002090601f01602090048101928215613e7c5791602002820160005b83821115613e4d57835183826101000a81548160ff0219169083151502179055509260200192600101602081600001049283019260010302613e10565b8015613e7a5782816101000a81549060ff0219169055600101602081600001049283019260010302613e4d565b505b509050613e899190613fd6565b5090565b5080546000825590600052602060002090810190613eab9190613f7e565b50565b60405180608001604052806000815260200160008152602001600073ffffffffffffffffffffffffffffffffffffffff168152602001606081525090565b6040518060a001604052806000815260200160008152602001600073ffffffffffffffffffffffffffffffffffffffff16815260200160608152602001606081525090565b828054828255906000526020600020908101928215613f6d579160200282015b82811115613f6c578251825591602001919060010190613f51565b5b509050613f7a9190613f7e565b5090565b5b80821115613f97576000816000905550600101613f7f565b5090565b5b80821115613fd257600081816101000a81549073ffffffffffffffffffffffffffffffffffffffff021916905550600101613f9c565b5090565b5b80821115613ffa57600081816101000a81549060ff021916905550600101613fd7565b5090565b60008135905061400d81614a18565b92915050565b60008083601f84011261402557600080fd5b8235905067ffffffffffffffff81111561403e57600080fd5b60208301915083602082028301111561405657600080fd5b9250929050565b600082601f83011261406e57600080fd5b813561408161407c82614889565b61485c565b915081818352602084019350602081019050838560208402820111156140a657600080fd5b60005b838110156140d657816140bc8882613ffe565b8452602084019350602083019250506001810190506140a9565b5050505092915050565b6000813590506140ef81614a2f565b92915050565b600082601f83011261410657600080fd5b8135614119614114826148b1565b61485c565b9150808252602083016020830185838301111561413557600080fd5b6141408382846149c5565b50505092915050565b60008135905061415881614a46565b92915050565b60006020828403121561417057600080fd5b600061417e84828501613ffe565b91505092915050565b600080600080600080600060e0888a0312156141a257600080fd5b600088013567ffffffffffffffff8111156141bc57600080fd5b6141c88a828b016140f5565b97505060206141d98a828b01614149565b96505060406141ea8a828b01614149565b955050606088013567ffffffffffffffff81111561420757600080fd5b6142138a828b016140f5565b945050608088013567ffffffffffffffff81111561423057600080fd5b61423c8a828b0161405d565b93505060a088013567ffffffffffffffff81111561425957600080fd5b6142658a828b016140f5565b92505060c088013567ffffffffffffffff81111561428257600080fd5b61428e8a828b016140f5565b91505092959891949750929550565b6000602082840312156142af57600080fd5b60006142bd84828501614149565b91505092915050565b6000806000604084860312156142db57600080fd5b60006142e986828701614149565b935050602084013567ffffffffffffffff81111561430657600080fd5b61431286828701614013565b92509250509250925092565b6000806040838503121561433157600080fd5b600061433f85828601614149565b9250506020614350858286016140e0565b9150509250929050565b6000806040838503121561436d57600080fd5b600061437b85828601614149565b925050602083013567ffffffffffffffff81111561439857600080fd5b6143a4858286016140f5565b9150509250929050565b600080604083850312156143c157600080fd5b60006143cf85828601614149565b92505060206143e085828601614149565b9150509250929050565b60006143f6838361441a565b60208301905092915050565b600061440e83836144f4565b60208301905092915050565b6144238161496b565b82525050565b6144328161496b565b82525050565b6000614443826148fd565b61444d8185614938565b9350614458836148dd565b8060005b8381101561448957815161447088826143ea565b975061447b8361491e565b92505060018101905061445c565b5085935050505092915050565b60006144a182614908565b6144ab8185614949565b93506144b6836148ed565b8060005b838110156144e75781516144ce8882614402565b97506144d98361492b565b9250506001810190506144ba565b5085935050505092915050565b6144fd8161497d565b82525050565b61450c8161497d565b82525050565b61451b816149b3565b82525050565b600061452c82614913565b614536818561495a565b93506145468185602086016149d4565b61454f81614a07565b840191505092915050565b614563816149a9565b82525050565b600060208201905061457e6000830184614429565b92915050565b6000602082019050818103600083015261459e8184614438565b905092915050565b600060208201905081810360008301526145c08184614496565b905092915050565b60006020820190506145dd600083018461455a565b92915050565b600060a0820190506145f8600083018861455a565b818103602083015261460a8187614438565b90506146196040830186614429565b614626606083018561455a565b614633608083018461455a565b9695505050505050565b6000608082019050614652600083018761455a565b61465f6020830186614503565b61466c6040830185614512565b614679606083018461455a565b95945050505050565b6000608082019050614697600083018761455a565b6146a46020830186614503565b6146b1604083018561455a565b6146be606083018461455a565b95945050505050565b600060a0820190506146dc600083018861455a565b81810360208301526146ee8187614521565b90506146fd604083018661455a565b61470a6060830185614429565b614717608083018461455a565b9695505050505050565b600061014082019050614737600083018d61455a565b8181036020830152614749818c614521565b9050614758604083018b61455a565b614765606083018a61455a565b81810360808301526147778189614521565b905061478660a0830188614503565b61479360c083018761455a565b6147a060e0830186614429565b8181036101008301526147b38185614521565b90508181036101208301526147c88184614521565b90509b9a5050505050505050505050565b60006060820190506147ee600083018661455a565b6147fb602083018561455a565b6148086040830184614429565b949350505050565b6000608082019050614825600083018761455a565b614832602083018661455a565b61483f6040830185614429565b81810360608301526148518184614521565b905095945050505050565b6000604051905081810181811067ffffffffffffffff8211171561487f57600080fd5b8060405250919050565b600067ffffffffffffffff8211156148a057600080fd5b602082029050602081019050919050565b600067ffffffffffffffff8211156148c857600080fd5b601f19601f8301169050602081019050919050565b6000819050602082019050919050565b6000819050602082019050919050565b600081519050919050565b600081519050919050565b600081519050919050565b6000602082019050919050565b6000602082019050919050565b600082825260208201905092915050565b600082825260208201905092915050565b600082825260208201905092915050565b600061497682614989565b9050919050565b60008115159050919050565b600073ffffffffffffffffffffffffffffffffffffffff82169050919050565b6000819050919050565b60006149be826149a9565b9050919050565b82818337600083830152505050565b60005b838110156149f25780820151818401526020810190506149d7565b83811115614a01576000848401525b50505050565b6000601f19601f8301169050919050565b614a218161496b565b8114614a2c57600080fd5b50565b614a388161497d565b8114614a4357600080fd5b50565b614a4f816149a9565b8114614a5a57600080fd5b5056fea2646970667358221220b4166e3222eaf522ac3132c5af2b01b91d3f9ba64dda4e9b6f232ecd5b00c92f64736f6c634300060c0033",
  "immutableReferences": {},
  "source": "pragma solidity ^0.6.0;\r\npragma experimental ABIEncoderV2;\r\n\r\ncontract LandRecord{\r\n    uint public personCount = 0;\r\n    uint public plotCount = 0;\r\n    uint public adminCount = 0;\r\n    address public govtGSTAddr ;\r\n    \r\n    constructor(address _govt)public{\r\n        govtGSTAddr = _govt;\r\n    }\r\n    \r\n    \r\n    struct Person{\r\n        uint personId;\r\n        uint perAadharno;\r\n        address perAddr;\r\n        uint[] plotsOwned;\r\n        address[] inheritChildren;\r\n        \r\n    }\r\n    \r\n    event plotAdded(uint plotId,string plotAddr,uint price,address owner,uint times);\r\n    event plotSale(uint plotId,bool isSelling,uint sellingPrice,uint times);\r\n    event plotTransferred(uint plotId,address[] oldowner,address newowner,uint sellPrice,uint times);\r\n    \r\n    mapping(address=>Person) public people;\r\n    mapping(uint=>address) public personIds;\r\n    mapping(uint=>Person) public personaadhars;\r\n    \r\n    \r\n    struct Plot{\r\n        uint plotId;\r\n        string plotaddr;\r\n        uint plotprice;\r\n        uint taxpercent;\r\n        string typedesc;\r\n        address[] owneraddr;\r\n        bool isSelling;\r\n        uint sellingPrice;\r\n        address newowner;\r\n        string neighbours;\r\n        bool[] consensus;\r\n        string imageurl;\r\n    }\r\n    \r\n    mapping(uint => Plot) public Plots;\r\n    \r\n    struct Admin{\r\n        uint adminId;\r\n        uint adminaadharno;\r\n        address adminaddr;\r\n        string role;\r\n        \r\n    }\r\n    \r\n    mapping(address=>Admin) public Admins;\r\n    mapping(uint=>address) public AdminIds;\r\n    mapping(uint=>Admin) public Adminaadhars;\r\n    \r\n    \r\n    \r\n    function addPerson(uint _perAadharno,address[] calldata _inheritChildren) public returns(uint) {\r\n        uint x = people[msg.sender].personId;\r\n        if(x == 0){\r\n            Person memory aux;\r\n            personCount++;\r\n            aux.personId = personCount;\r\n            aux.perAadharno = _perAadharno;\r\n            aux.perAddr = msg.sender;\r\n            aux.inheritChildren = _inheritChildren;\r\n            people[msg.sender] = aux;\r\n            personIds[personCount] = msg.sender;\r\n            personaadhars[_perAadharno] = aux;\r\n            return personCount;\r\n            \r\n        }\r\n        else{\r\n            Person memory aux = people[msg.sender];\r\n            aux.inheritChildren = _inheritChildren;\r\n            people[msg.sender] = aux;\r\n            return personCount;            \r\n        }\r\n        \r\n    }\r\n    \r\n    function addAdmin(uint _adminaadharno,string memory _role) public returns(uint){\r\n        uint x = Admins[msg.sender].adminId;\r\n        if(x == 0){\r\n            adminCount++;\r\n            Admin memory aux;\r\n            aux.adminId = adminCount;\r\n            aux.adminaadharno = _adminaadharno;\r\n            aux.adminaddr = msg.sender;\r\n            aux.role = _role;\r\n            Admins[msg.sender] = aux;\r\n            AdminIds[adminCount] = msg.sender;\r\n            Adminaadhars[_adminaadharno] = aux;\r\n            return adminCount;\r\n            \r\n        }\r\n        else{\r\n            Admin memory aux = Admins[msg.sender]; \r\n            aux.adminaadharno = _adminaadharno;\r\n            aux.role = _role;\r\n            Admins[msg.sender] = aux;\r\n            \r\n        }\r\n    }\r\n    \r\n    function addPlot(string memory _plotaddr,uint _plotprice,uint _taxpercent,string memory _typedesc,address[] memory _owneraddr,string memory _neighbours,string memory _imageurl) public returns(uint){\r\n       plotCount++;\r\n       Plot memory aux;\r\n       aux.plotId = plotCount; \r\n       aux.plotaddr = _plotaddr;\r\n       aux.plotprice = _plotprice;\r\n       aux.owneraddr = _owneraddr;\r\n       aux.taxpercent = _taxpercent;\r\n       aux.typedesc = _typedesc;\r\n       aux.neighbours = _neighbours;   \r\n       aux.imageurl = _imageurl;\r\n       Plots[plotCount] = aux;\r\n       emit plotAdded(plotCount,_plotaddr,_plotprice,_owneraddr[0],now);\r\n       return plotCount;\r\n    }\r\n    \r\n    function putForSale(uint _plotId,uint _price)public {\r\n        Plot memory aux = Plots[_plotId];\r\n        aux.isSelling = true;\r\n        aux.sellingPrice = _price;\r\n        Plots[_plotId] = aux;\r\n        emit plotSale(_plotId,true,_price,now);\r\n    }\r\n    \r\n    function desale(uint _plotId) public {\r\n        Plot memory aux = Plots[_plotId];\r\n        aux.isSelling = false;\r\n        aux.sellingPrice = 0;\r\n        Plots[_plotId] = aux;\r\n        emit plotSale(_plotId,false,0,now);\r\n    }\r\n    \r\n    function addTax(uint _plotId,uint _taxpercent)public {\r\n        Plot memory aux = Plots[_plotId];\r\n        aux.taxpercent = _taxpercent;\r\n        Plots[_plotId] = aux;\r\n    }\r\n    \r\n    \r\n    function buyLand(uint _plotId)public payable{\r\n        Plot memory aux = Plots[_plotId];\r\n        require(aux.isSelling);\r\n        require(aux.sellingPrice <= msg.value);\r\n        aux.newowner = msg.sender;\r\n        Plots[_plotId] = aux;\r\n    }\r\n    \r\n    \r\n    function consensus(uint _plotId,bool _dec)public{\r\n        Plots[_plotId].consensus.push(_dec);\r\n        Plot storage aux = Plots[_plotId];\r\n        uint participants = aux.consensus.length;\r\n        if( participants >= ((adminCount/2)+1)){\r\n            uint nostrue;\r\n            for(uint i = 0; i < participants;i++){\r\n                if(aux.consensus[i]){\r\n                    nostrue++;\r\n                }\r\n            }\r\n            if((2*nostrue)>=adminCount){\r\n                transfer(_plotId);\r\n            }\r\n        }\r\n        \r\n        \r\n    }\r\n    \r\n    function transfer(uint _plotId)public{\r\n        Plot memory aux = Plots[_plotId];\r\n        uint nosowner = aux.owneraddr.length;\r\n        uint totmoney = aux.sellingPrice;\r\n        uint newmoney = (aux.sellingPrice/nosowner);\r\n        address newowner = aux.newowner;\r\n        address[] memory oldowner = aux.owneraddr;\r\n        for(uint i = 0; i < nosowner;i++){\r\n                (payable(aux.owneraddr[i])).transfer(newmoney);\r\n            }\r\n        aux.plotprice = aux.sellingPrice;\r\n        aux.isSelling = false;\r\n        aux.sellingPrice = 0;\r\n        aux.newowner = address(0x0);\r\n        Plots[_plotId] = aux;\r\n        delete Plots[_plotId].owneraddr;\r\n        Plots[_plotId].owneraddr.push(newowner);\r\n        plotTransferred(_plotId,oldowner,newowner,totmoney,now);\r\n    }\r\n    \r\n    function expirePerson(uint _plotId)public{\r\n        address[] storage x = Plots[_plotId].owneraddr;\r\n        Person memory aux = people[x[0]];\r\n        delete Plots[_plotId].owneraddr;\r\n        Plots[_plotId].owneraddr = aux.inheritChildren;\r\n        \r\n    }\r\n    function getowner(uint _plotId)public view returns(address[] memory){\r\n        return Plots[_plotId].owneraddr;\r\n    }\r\n    \r\n    function getconsensus(uint _plotId)public view returns(bool[] memory){\r\n        return Plots[_plotId].consensus;\r\n    }\r\n    \r\n    \r\n    \r\n    \r\n}",
  "sourcePath": "E:/Github/DSTOG/contracts/LandRec.sol",
  "compiler": {
    "name": "solc",
    "version": "0.6.12+commit.27d51765.Emscripten.clang"
  },
  "schemaVersion": "3.3.3",
  "updatedAt": "2021-01-09T18:40:05.645Z",
  "networkType": "ethereum",
  "devdoc": {
    "kind": "dev",
    "methods": {},
    "version": 1
  },
  "userdoc": {
    "kind": "user",
    "methods": {},
    "version": 1
  }
}